{
  "abi": [
    {
      "inputs": [],
      "name": "FEE_MAX",
      "type": "error"
    },
    {
      "inputs": [],
      "name": "REENTRANCY",
      "type": "error"
    },
    {
      "inputs": [],
      "name": "bar",
      "outputs": [],
      "stateMutability": "nonpayable",
      "type": "function"
    },
    {
      "inputs": [],
      "name": "expensive",
      "outputs": [],
      "stateMutability": "nonpayable",
      "type": "function"
    },
    {
      "inputs": [],
      "name": "foo",
      "outputs": [],
      "stateMutability": "nonpayable",
      "type": "function"
    },
    {
      "stateMutability": "payable",
      "type": "receive"
    }
  ],
  "bytecode": {
    "object": "0x6080604052600160005534801561001557600080fd5b50610271806100256000396000f3fe6080604052600436106100385760003560e01c80630bc07a8814610044578063c29855781461005b578063febb0f7e1461007057600080fd5b3661003f57005b600080fd5b34801561005057600080fd5b50610059610085565b005b34801561006757600080fd5b506100596100bc565b34801561007c57600080fd5b50610059610130565b60005b60328110156100b957600180549060006100a1836101fb565b919050555080806100b1906101fb565b915050610088565b50565b60005a90506100c961013a565b6409502f900048013a111561010a576040517fc2624e1e00000000000000000000000000000000000000000000000000000000815260040160405180910390fd5b610112610085565b3a5a909103610bb80102610126328261017d565b6100b96001600055565b610138610085565b565b600260005410610176576040517fad2ce74900000000000000000000000000000000000000000000000000000000815260040160405180910390fd5b6002600055565b600080600080600085875af19050806101f6576040517f08c379a000000000000000000000000000000000000000000000000000000000815260206004820152601360248201527f4554485f5452414e534645525f4641494c454400000000000000000000000000604482015260640160405180910390fd5b505050565b600060018201610234577f4e487b7100000000000000000000000000000000000000000000000000000000600052601160045260246000fd5b506001019056fea2646970667358221220325204be1d54f2cde6070046d0ac44c1ec5e3ff0981c0b9b867042f4dd952ca464736f6c634300080f0033",
    "linkReferences": {}
  }
}