{
  "abi": [
    {
      "inputs": [],
      "name": "text",
      "outputs": [
        {
          "internalType": "bytes32",
          "name": "",
          "type": "bytes32"
        }
      ],
      "stateMutability": "pure",
      "type": "function"
    },
    {
      "inputs": [],
      "name": "val",
      "outputs": [
        {
          "internalType": "uint256",
          "name": "",
          "type": "uint256"
        }
      ],
      "stateMutability": "payable",
      "type": "function"
    }
  ],
  "bytecode": {
    "object": "0x6080604052348015600f57600080fd5b5060a68061001e6000396000f3fe60806040526004361060265760003560e01c80631f1bd69214602b5780633c6bb43614606b575b600080fd5b348015603657600080fd5b507f48656c6c6f0000000000000000000000000000000000000000000000000000005b60405190815260200160405180910390f35b34605956fea26469706673582212209fd4578a2d030145fb68c16680d775121adf9ea22bf44e3da8c651ea183d486964736f6c634300080f0033",
    "linkReferences": {}
  }
}