{
  "abi": [
    {
      "inputs": [],
      "name": "GAS_MAX",
      "type": "error"
    },
    {
      "inputs": [],
      "name": "Reentrancy",
      "type": "error"
    },
    {
      "inputs": [],
      "name": "bar",
      "outputs": [],
      "stateMutability": "nonpayable",
      "type": "function"
    },
    {
      "inputs": [],
      "name": "expensive",
      "outputs": [],
      "stateMutability": "nonpayable",
      "type": "function"
    },
    {
      "inputs": [],
      "name": "foo",
      "outputs": [],
      "stateMutability": "nonpayable",
      "type": "function"
    },
    {
      "stateMutability": "payable",
      "type": "receive"
    }
  ],
  "bytecode": {
    "object": "0x6080604052600160005534801561001557600080fd5b5061028e806100256000396000f3fe6080604052600436106100385760003560e01c80630bc07a8814610044578063c29855781461005b578063febb0f7e1461007057600080fd5b3661003f57005b600080fd5b34801561005057600080fd5b50610059610085565b005b34801561006757600080fd5b506100596100bc565b34801561007c57600080fd5b5061005961014d565b60005b60328110156100b957600180549060006100a183610218565b919050555080806100b190610218565b915050610088565b50565b6100c4610157565b60005a90506409502f900048013a111561010a576040517f5243ab4b00000000000000000000000000000000000000000000000000000000815260040160405180910390fd5b610112610085565b6101433a5a8303615c1301023273ffffffffffffffffffffffffffffffffffffffff1661019a90919063ffffffff16565b6100b96001600055565b610155610085565b565b600260005410610193576040517fab143c0600000000000000000000000000000000000000000000000000000000815260040160405180910390fd5b6002600055565b600080600080600085875af1905080610213576040517f08c379a000000000000000000000000000000000000000000000000000000000815260206004820152601360248201527f4554485f5452414e534645525f4641494c454400000000000000000000000000604482015260640160405180910390fd5b505050565b600060018201610251577f4e487b7100000000000000000000000000000000000000000000000000000000600052601160045260246000fd5b506001019056fea26469706673582212205fe94cd482dc07b6d86c7cfe576a529e70be28485de3019896efecfc61a5ea7864736f6c634300080f0033",
    "linkReferences": {}
  }
}